:100000000C94E6160C9410170C9410170C941017FF
:100010000C9410170C9410170C9410170C941017C4
:100020000C9410170C9410170C9410170C941017B4
:100030000C9410170C94A03C0C9410170C941017EF
:100040000C9410170C94842B0C94C8C10C941017AA
:100050000C9488B30C9410170C9410170C94101770
:100060000C9410170C9410170C9410170C94101774
:100070000C9410170C9410170C9410170C94101764
:100080000C94B53D0C9410170C9410174E414E492A
:100090004E495459494E46CDCCCC3D0AD7233C1746
:1000A000B7D13877CC2B329595E6241FB14F0A0093
:1000B0000020410000C84200401C4620BCBE4CCA83
:1000C0001B0E5AAEC59D7400407A10F35A00A07200
:1000D0004E18090010A5D4E80000E8764817000083
:1000E000E40B54020000CA9A3B000000E1F5050051
:1000F0000080969800000040420F000000A086019A
:10010000000000102700000000E803000000006469
:1001100000000000000A00000000000100000000D4
:10012000002C76D888DC674F0823DFC1DFAE59E1A9
:10013000B1B796E5E3E453C63AE651997696E8E618
:10014000C28426EB898C9B62ED407C6FFCEFBC9CEB
:100150009F40F2BAA56FA5F490055A2AF75C936BFD
:100160006CF9676DC11BFCE0E40D47FEF520E6B5B8
:1001700000D0ED902E0300943577050080841E0892
:100180000000204E0A000000C80C333333330F98B0
:100190006E12831141EF8D2114893BE65516CFFE77
:1001A000E6DB18D1844B381BF77C1D901DA4BBE403
:1001B00024203284725E228100C9F124ECA1E53D45
:1001C00027454550524F4D206461746173697A65CB
:1001D000206572726F722E0A00290A0020627974FB
:1001E00065733B20637263200053657474696E67A6
:1001F000732053746F726564202800290A002062FE
:10020000797465733B2063726320002073746F728E
:1002100065642073657474696E67732072657472A7
:100220006965766564202800202863616C63756CBD
:100230006174656429210A0020213D200045455054
:10024000524F4D20435243206D69736D6174636852
:10025000202D202873746F72656429200020536953
:100260007A653A2000496E6465783A2000204D6135
:10027000726C696E3D563536290A00284545505244
:100280004F4D3D00454550524F4D20766572736984
:100290006F6E206D69736D617463682000486172D0
:1002A00064636F6465642044656661756C74205393
:1002B000657474696E6773204C6F616465640A00CD
:1002C000F4010000F4010000640000008813000045
:1002D0000000FA430000FA430000A0400000C841BB
:1002E0000000A0420000A0420000C8430000BA4243
:1002F0003A0A0020286D6D290020204D3835312024
:100300005A005A2D50726F6265204F66667365748D
:100310000020440020490020204D3330312050007F
:100320005049442073657474696E67733A0A0020FB
:10033000460020420020480020204D313435205313
:10034000004D6174657269616C20686561747570D7
:1003500020706172616D65746572733A0A00205A8B
:1003600000204A0020204732392057204900205AD7
:100370000020204D3432302053004175746F2042EC
:100380006564204C6576656C696E673A0A00205A90
:100390000020590020204D323036205800486F6D23
:1003A00065206F66667365743A0A00204500205A1E
:1003B0000020590020580020540020530020204DD8
:1003C00032303520510020453C6D61785F655F6AB1
:1003D00065726B3E0020583C6D61785F785F6A659E
:1003E000726B3E20593C6D61785F795F6A65726B14
:1003F0003E205A3C6D61785F7A5F6A65726B3E00A1
:10040000416476616E6365643A20513C6D696E5F4C
:100410007365676D656E745F74696D655F75733E56
:1004200020533C6D696E5F66656564726174653EFC
:1004300020543C6D696E5F74726176656C5F6665B1
:100440006564726174653E002054002052002020D3
:100450004D323034205000416363656C65726174C5
:10046000696F6E2028756E6974732F7332293A2074
:10047000503C7072696E745F616363656C3E2052BC
:100480003C726574726163745F616363656C3E2086
:10049000543C74726176656C5F616363656C3E0A9F
:1004A00000204500205A0020590020204D323031D4
:1004B0002058004D6178696D756D20416363656CEE
:1004C00065726174696F6E2028756E6974732F731D
:1004D00032293A0A00204500205A002059002020E5
:1004E0004D3230332058004D6178696D756D20664E
:1004F00065656472617465732028756E6974732F05
:1005000073293A0A00204500205A00205900202073
:100510004D39322058005374657073207065722015
:10052000756E69743A0A0020204D32303020443014
:100530000A0020204D32303020440020446973618D
:10054000626C65640A0046696C616D656E74207347
:10055000657474696E67733A0020204D3134392018
:1005600043203B20556E69747320696E2043656C8F
:10057000736975730A002020473231202020203B08
:1005800000486F6D696E67206661696C6564005430
:100590005249474745524544006F70656E003A2006
:1005A000007A5F6D696E00795F6D696E00785F6DCE
:1005B000696E005265706F7274696E6720656E6453
:1005C00073746F70207374617475730A0020746F94
:1005D0006F206C6F6E6720657874727573696F6ECB
:1005E0002070726576656E7465640A0020636F6CB6
:1005F0006420657874727573696F6E2070726576A9
:10060000656E7465640A0024F4D43050C38E20C231
:10061000A24017828B7011127A910D816CD90AA8B1
:1006200061E108C7586607615143061E4B5D05C16D
:1006300045A7041A411104093D980371393103405B
:1006400036DB0265339102D4305402802E1D0263E2
:100650002CEE01752AC501B028A001102781018F59
:100660002564012B244B01E0223401AC211F018DB4
:10067000200D01801FFC00841EED00971DDF00B8D7
:100680001CD200E61BC600201BBC00641AB200B2DC
:1006900019A8000A19A0006A189900D11791004002
:1006A000178B00B516840031167E00B31579003A19
:1006B000157300C7146F0058146A00EE13660088A3
:1006C00013630025135E00C7125B006C1257001500
:1006D000125400C111510070114F0021114B00D66E
:1006E0001049008D1047004610440002104200C01F
:1006F0000F4000800F3E00420F3C00060F3B00CB36
:100700000E3800930E37005C0E3500270E3400F3D0
:100710000D3200C10D3100900D3000600D2E003201
:100720000D2D00050D2C00D90C2B00AE0C290085D9
:100730000C29005C0C2700350C27000E0C2600E865
:100740000B2400C40B2400A00B23007D0B23005AB4
:100750000B2100390B2100180B2000F80A1F00D9CB
:100760000A1E00BB0A1E009D0A1D00800A1D0063B0
:100770000A1C00470A1B002C0A1B00110A1A00F76A
:10078000091A00DD091900C4091900AB0919009202
:100790000917007B091800630917004C0916003679
:1007A000091600200916000A091500F5081500E0D1
:1007B000081400CC081400B8081400A40814009011
:1007C0000813007D0812006B081300580812004639
:1007D000081200340811002308110012081100014A
:1007E000081100F0071000E0071000D0071000C04B
:1007F000071000B0070F00A107100091070E00833B
:10080000070F0074070F0065070E0057070E004919
:10081000070E003B070D002E070E0020070D0013EA
:10082000070D0006070D00F9060C00ED060D00E0AF
:10083000060C00D4060C00C8060C00BC060C00B068
:10084000060C00A4060B0099060C008D060B008216
:10085000060B0077060B006C060B0061060A0057BA
:10086000060B004C060A0042060A0038060A002E53
:10087000060A0024060A001A060A001006090007E4
:10088000060A00FD050900F4050900EB050900E270
:10089000050900D9050900D0050900C7050900BEF2
:1008A000050900B5050800AD050800A50509009C6F
:1008B000050800940508008C050800840508007CE4
:1008C000050800740508006C050700650508005D53
:1008D000050700560508004E0507004705070040BC
:1008E00005080038050700310507002A0507002321
:1008F0000507001C050600160507000F0507000880
:1009000005060002050700FB040600F5040700EEDB
:10091000040600E8040600E2040700DB040600D534
:10092000040600CF040600C9040600C3040600BD87
:10093000040600B7040600B1040500AC040600A6D6
:10094000040600A00405009B040600950405009021
:100950000406008A04050085040500800406007A68
:1009600004050075040500700405006B04050066AD
:10097000040500610405005C0405005704050052ED
:100980000405004D04050048040500430405003E2D
:100990000404003A04050035040500300404002C6A
:1009A00004050027040400230405001E0404001AA3
:1009B00004040016040500110404000D04040009D9
:1009C0000405000404040000040400FC030400F80F
:1009D000030400F4030400F0030400EC030400E843
:1009E000030400E4030400E0030400DC030400D873
:1009F000030400D4030400D0030400CC030400C8A3
:100A0000030300C503030024F404D9201BC40C5CB9
:100A10000E9804C4095F0265077101F405F900FB33
:100A200004B30048048700C103690058035500035C
:100A3000034500BE023A008402310053022A002915
:100A400002250004022000E4011C00C8011900AFC7
:100A50000117009801140084011300710110006156
:100A600001100051010E0043010D0036010B002B57
:100A7000010B0020010B00150109000C0109000306
:100A8000010800FB000800F3000800EB000700E489
:100A9000000600DE000600D8000600D2000600CCEA
:100AA000000500C7000500C2000500BD000400B934
:100AB000000400B5000400B1000400AD000400A96A
:100AC000000400A5000300A20003009F0004009B97
:100AD00000030098000300950002009300030090BB
:100AE0000003008D0002008B0003008800020086D6
:100AF00000020084000300810002007F0002007DEC
:100B00000002007B000200790002007700010076FD
:100B10000002007400020072000100710002006F08
:100B20000002006D0001006C0002006A0001006913
:100B3000000200670001006600010065000100641A
:100B40000002006200010061000100600001005F1E
:100B50000002005D0001005C0001005B0001005A22
:100B60000001005900010058000100570001005623
:100B70000001005500010054000100530000005323
:100B80000001005200010051000100500001004F1F
:100B90000001004E0000004E0001004D0001004C1D
:100BA0000001004B0000004B0001004A0001004919
:100BB0000001004800000048000100470001004615
:100BC000000000460001004500000045000100440F
:100BD0000001004300000043000100420000004209
:100BE0000001004100000041000100400001003F01
:100BF0000000003F0001003E0000003E0001003DFB
:100C00000000003D0001003C0000003C0000003CF2
:100C10000001003B0000003B0001003A0000003AE8
:100C200000010039000000390001003800000038E0
:100C300000000038000100370000003700010036D6
:100C400000000036000000360001003500000035CD
:100C500000000035000100340000003400000034C2
:100C600000010033000000330000003300010032B7
:100C700000000032000000320001003100000031AD
:100C800000000031000100300000003000000030A2
:100C90000001002F0000002F0000002F0000002F97
:100CA0000001002E0000002E0000002E0001002D8B
:100CB0000000002D0000002D0000002D0001002C80
:100CC0000000002C0000002C0000002C0001002B74
:100CD0000000002B0000002B0000002B0001002A68
:100CE0000000002A0000002A0000002A000100295C
:100CF0000000002900000029000000290000002950
:100D00000001002800000028000000280000002842
:100D10000000002800010027000000270000002735
:100D20000000002700000027000100260000002628
:100D3000000000260000002600000026000100251B
:100D4000000000250000002500000025000000250F
:100D50000000002500010024000000240000002401
:100D600000000024000000240001002300000023F4
:100D700000000023000000230000002300000023E7
:100D800000000023000100220000002200000022D9
:100D900000000022000000220000002200010021CB
:100DA00000000021000000210000002100000021BF
:100DB00000000021000000210001002000000020B0
:100DC00000000020000000200000002000000020A3
:100DD00000000020000000200001001F0000001F94
:100DE0000000001F0000001F0000001F0000001F87
:100DF0000000001F0001001E0000001E0000001E79
:100E00000000001E000000043700001E29000051F1
:100E10001B00005810000010090000CC04000078EE
:100E2000020000410100006265640A002C20737911
:100E30007374656D2073746F7070656421204865EC
:100E4000617465725F49443A2000426564206865B8
:100E50006174696E67206661696C656400486561EC
:100E600074696E67206661696C656400453120486D
:100E7000656174696E67206661696C6564004865C8
:100E80006174696E67206661696C65640070012C2D
:100E90000190012701B0012201C0011D01F00118DC
:100EA000011002130130020E0160020901900204D8
:100EB00001C002FF000003FA004003F5008003F0C8
:100EC00000D003EB002004E6007004E100E004DC45
:100ED000004005D700C005D2004006CD00D006C8AE
:100EE000008007C3003008BE00F008B900C009B494
:100EF00000B00AAF00B00BAA00D00CA500000EA0F5
:100F000000500F9B00C01096005012910000148CEE
:100F100000C0158700B0178200B0197D00D01B7883
:100F200000001E730040206E0090226900F02464CF
:100F30000040275F0090295A00E02B5500102E50EA
:100F40000020304B0010324600E033410090353C29
:100F5000001037370070383200A0392D00B03A2821
:100F600000A03B2300603C1E00103D1900903D1482
:100F700000103E0F00703E0A00C03E0500003F001A
:100F800000403FFBFF803FF6FFC03FF1FF453120AF
:100F9000544845524D414C2052554E4157415900FD
:100FA00042454420544845524D414C2052554E41F3
:100FB00057415900546865726D616C2052756E61BD
:100FC000776179004531204572723A204D4158547D
:100FD000454D50004572723A204D415854454D5090
:100FE00020424544004D415854454D50207472698B
:100FF000676765726564004531204572723A204D1D
:10100000494E54454D50004572723A204D494E5458
:10101000454D5020424544004D494E54454D5020C9
:10102000747269676765726564004D3834205820B2
:1010300059205A204500202F002042403A002040ED
:101040003A0025753A2530327500253032753A253B
:101050003032750025756420253032753A253032DE
:101060007500202020202020005A00590020202038
:1010700020005800092000000000000000000000CF
:10108000000000003FFFF000000000000000000032
:1010900000000000380070000000000000000000A8
:1010A0000000000030FC30000000000000000000E4
:1010B0000000000020FC1000000000000000000004
:1010C0000000000020781000000000000000000078
:1010D00000000000203010000000000000000000B0
:1010E000000000002C00D0F80180000C1FE0000080
:1010F000082080002E31D048008000123FF0000010
:10110000041040002F7BD043C38CD0023FF000007E
:10111000041040002F7BD071249267CC3FF0000078
:10112000082080002E31D041249E40021FE00000A4
:10113000104100002C00D049249040121FE0000014
:1011400020820000203010FBB3CEE00C3FF0000006
:101150002082000020781000000000003FF0000016
:101160001041000020FC1000000000003FF00000D3
:101170000820800030FC3000000000000FC000009C
:101180000000000038007000000000000780000030
:10119000FFFFC0003FFFF000000000000300000060
:1011A000FFFFC00000000000000000000000000081
:1011B000000000003FFFF000000000000000000001
:1011C0000000000038007000000000000000000077
:1011D0000000000033873000000000000000000025
:1011E00000000000278790000000000000000000C1
:1011F000000000002F87D000000000000000000069
:10120000000000002F87D000000000000000000058
:10121000000000002F03D0F80180000C1FE0000048
:101220000820800020301048008000123FF00000AD
:101230000410400020781043C38CD0023FF000001F
:101240000410400020781071249267CC3FF0000019
:101250000820800020301041249E40021FE0000042
:10126000104100002F03D049249040121FE00000DD
:10127000208200002F87D0FBB3CEE00C3FF00000AF
:10128000208200002F87D000000000003FF0000007
:101290001041000027879000000000003FF0000090
:1012A0000820800033873000000000000FC00000DD
:1012B00000000000380070000000000007800000FF
:1012C000FFFFC0003FFFF00000000000030000002F
:1012D000FFFFC000000000456E6465722D33205290
:1012E000656164792E005072696E74696E672E2E86
:1012F0002E005072696E7420706175736564004DC4
:101300003130362050256920532569004D31303960
:1013100020532569004D31393020532569004D3463
:1013200032302053300A473238205230205820596A
:101330000053746F70207072696E7400526573751B
:101340006D65207072696E7400506F7765722D4CF8
:101350006F7373205265636F7665727900436D64B5
:101360003A2053746F7700436D643A204465706C83
:101370006F7900436D643A2053656C662D54657334
:101380007400436D643A2053572D4D6F64650043DC
:101390006D643A205265736574004D61696E00504A
:1013A00072696E742061626F7274656400496E695F
:1013B000742E2053442063617264004D3231004E1C
:1013C0006F2053442063617264004368616E6765F7
:1013D0002053442063617264004D323100507269C1
:1013E0006E742066726F6D2053440053746F7020CA
:1013F0007072696E7400526573756D6520707269E4
:101400006E740041626F7574205072696E746572FB
:10141000005061757365207072696E7400436F6E61
:1014200074726F6C00507265706172650054756EF5
:101430006500496E666F2073637265656E00507259
:101440006F6265205A204F66667365740050726F34
:101450006265205A204F666673657400466C6F772C
:1014600000466C6F770046616E207370656564009E
:1014700046616E2073706565640042656400426574
:1014800064004E6F7A7A6C65004E6F7A7A6C6500F4
:101490005370656564005370656564004D61696EE5
:1014A000005072656865617420504C4120456E643F
:1014B000005072656865617420504C41204265643B
:1014C000005072656865617420504C41005072652F
:1014D00070617265005072656865617420414253A5
:1014E00020456E6400507265686561742041425306
:1014F0002042656400507265686561742041425302
:10150000005072657061726500436D643A205265E7
:10151000736574004D3238302050302053313630EE
:1015200000436D643A2053656C662D5465737400F6
:101530004D323830205030205331323000507265F7
:10154000686561742041425300507265686561743A
:1015500020504C4100436F6F6C646F776E0044699C
:101560007361626C65207374657070657273004D91
:101570003834004175746F20686F6D6500473238EC
:10158000004D6F76652061786973004D61696E006A
:101590004D6F76652058004D6F76652059004D6F70
:1015A0007665205A004578747275646572004D6FD7
:1015B000766520302E316D6D004D6F766520316D72
:1015C0006D004D6F76652031306D6D004D6F766525
:1015D0002061786973004578747275646572004D96
:1015E0006F7665205A004D6F76652059004D6F76F5
:1015F00065205800434F4D4D554E49434154494F86
:101600004E0044525952554E004552524F525300CB
:10161000494E464F004543484F00656E71756575EC
:1016200065696E6720220020496E76616C696420CE
:101630006578747275646572200000000000000017
:1016400000000000000000006B4300006B4300003E
:101650007A4342696C696E656172204C6576656C8F
:10166000696E6720477269643A0A0020284452591B
:1016700052554E2900473239204175746F2042651A
:1016800064204C6576656C696E67003F20284C2CA1
:10169000522C462C4229206F7574206F6620626F91
:1016A000756E64732E0A003F2856296572626F7347
:1016B00065206C6576656C20697320696D706C615E
:1016C000757369626C652028302D34292E0A00421A
:1016D0006164205A2076616C75650A004E6F206245
:1016E000696C696E65617220677269640A00507284
:1016F0006F7465637465642050696E0A0020573A00
:10170000004520436F6F6C696E672E2E2E004520BA
:1017100048656174696E672E2E2E0020573A00428C
:10172000656420636F6F6C696E672E2E2E004265B4
:10173000642068656174696E672E2E2E00205A3A07
:101740000020593A0020436F756E7420583A0020EB
:10175000453A00205A3A0020593A00583A003A00D7
:101760004361703A00205A00205900580020204D53
:1017700061783A2000205A00205900580020204D5E
:10178000696E3A20004F6E20004F666600536F6608
:101790007420656E6473746F70733A2000236465FF
:1017A00066696E652044454641554C545F4B642044
:1017B0000023646566696E652044454641554C5476
:1017C0005F4B69200023646566696E652044454669
:1017D00041554C545F4B7020005049442041757472
:1017E0006F74756E652066696E6973686564212023
:1017F00050757420746865206C617374204B702C74
:10180000204B6920616E64204B6420636F6E73749B
:10181000616E74732066726F6D2062656C6F7720E5
:10182000696E746F20436F6E666967757261746963
:101830006F6E2E680A00504944204175746F7475AC
:101840006E65206661696C6564212074696D656FE1
:1018500075740A00453120544845524D414C205280
:10186000554E4157415900546865726D616C205264
:10187000756E617761790045312048656174696EE4
:1018800067206661696C65640048656174696E67AC
:10189000206661696C656400504944204175746F2D
:1018A00074756E65206661696C6564212054656D90
:1018B000706572617475726520746F6F20686967F6
:1018C000680A00204B643A2000204B693A2000202F
:1018D0004B703A20000A20436C6173736963205097
:1018E0004944200A002054753A2000204B753A20C4
:1018F00000206D61783A2000206D696E3A2000204A
:10190000643A200020626961733A20005049442003
:101910004175746F74756E652073746172740A001A
:10192000504944204175746F74756E652066616915
:101930006C6564212054656D7065726174757265A3
:1019400020746F6F20686967680A0050494420411D
:1019500075746F74756E65206661696C65642120AD
:10196000426164206578747275646572206E756D6D
:101970006265720A004F66660A0046616465204827
:1019800065696768742000426564204C6576656C03
:10199000696E6720004661696C656420746F20651C
:1019A0006E61626C6520426564204C6576656C6989
:1019B0006E670A004F666673657473206170706CA1
:1019C000696564004572723A20546F6F20666172D7
:1019D0002100546F6F206661722066726F6D2072F5
:1019E00065666572656E636520706F696E740A0066
:1019F000536C6565702E2E2E00486F6D652058590A
:101A00002066697273740A00486F6D65205859200A
:101A1000666972737400205A3A200020593A2000F7
:101A200042656420583A20004D65736820706F69E4
:101A30006E742063616E6E6F7420626520726573D0
:101A40006F6C7665640A00436C69636B20746F2069
:101A5000726573756D652E2E2E004E6F206D6F763C
:101A6000652E00456E642066696C65206C69737430
:101A70000A00426567696E2066696C65206C69734F
:101A8000740A00286E6F2066696C652900437572C0
:101A900072656E742066696C653A2000534420704C
:101AA00072696E74696E67206279746520004E6F8A
:101AB00074205344207072696E74696E670A002541
:101AC00069730025696D20256973002569682025E3
:101AD000696D2025697300256964202569682025C2
:101AE000696D2025697300256979202569642025A1
:101AF00069682025696D20256973005072696E74CC
:101B00002074696D653A20006F6666001516101620
:101B100009160216F41544454255473A004B494C04
:101B20004C45442E20004D3131332053006F6B0063
:101B3000456E6465722D33204F66662E002C2000A2
:101B40002C2000544845524D414C5F50524F544553
:101B50004354494F4E004155544F5245504F5254F3
:101B60005F53445F53544154555300454D455247CC
:101B7000454E43595F5041525345520043415345EE
:101B80005F4C494748545F4252494748544E455379
:101B90005300544F47474C455F4C49474854530006
:101BA000534F4654574152455F504F57455200429C
:101BB00055494C445F50455243454E54004C4556A0
:101BC000454C494E475F44415441005A5F50524F83
:101BD0004245004155544F4C4556454C00505249E2
:101BE0004E545F4A4F420050524F475245535300A4
:101BF0004155544F5245504F52545F54454D50003B
:101C0000564F4C554D455452494300454550524F4F
:101C10004D0053455249414C5F584F4E5F584F4617
:101C200046004649524D574152455F4E414D453A57
:101C30004D61726C696E206275676669782D312E10
:101C4000312E7820284769746875622920534F55D2
:101C50005243455F434F44455F55524C3A68747454
:101C600070733A2F2F6769746875622E636F6D2FDA
:101C70004D61726C696E4669726D776172652F4D48
:101C800061726C696E2050524F544F434F4C5F56F7
:101C9000455253494F4E3A312E30204D4143484929
:101CA0004E455F545950453A456E6465722D332058
:101CB00045585452554445525F434F554E543A315E
:101CC00020555549443A63656465326132662D3466
:101CD0003161322D343734382D396231322D63354C
:101CE000356336326633363766660A002F2F20009A
:101CF0004D31343520533C696E6465783E206F75F4
:101D000074206F662072616E67652028302D31293E
:101D10000A00205400205200416363656C657261C3
:101D200074696F6E3A2050005741524E494E472118
:101D3000204C6F77205A204A65726B206D617920A4
:101D40006C65616420746F20756E77616E74656474
:101D5000207061757365732E0A0020466C6F773AA8
:101D6000200000010F150E12FFFFFFFF16170E13C4
:101D7000FFFFFFFF03021A14FFFFFFFFFFFFFF0C2F
:101D800004FFFFFF01000EFFFFFF0C190DFF183AC3
:101D9000200020536572766F2000206F7574206FCD
:101DA000662072616E67650A00536572766F200067
:101DB00050726F6265205A204F66667365743A20D0
:101DC00000496E76616C696420657874727564652B
:101DD000720A0020643A0020693A0020703A0043F9
:101DE000290A0061626C656420286D696E20746543
:101DF0006D702000436F6C64206578747275646543
:101E0000732061726520004E6F2063617365206CE2
:101E1000696768740A004D65736820706F696E7435
:101E20002063616E6E6F74206265207265736F6CE3
:101E30007665640A004D34323120696E636F7272C8
:101E400065637420706172616D657465722075736D
:101E50006167650A00454550524F4D204F4B0A00BF
:101E60003F5A206F7574206F662072616E6765201F
:101E7000282D323020746F203230290A003A200099
:101E800050726F6265205A204F6666736574004118
:101E900063746976652045787472756465723A205A
:101EA00000496E76616C696420657874727564654A
:101EB000720A00526573656E643A20006F6B0020F1
:101EC000746F6F206C6F6E672065787472757369BC
:101ED0006F6E2070726576656E7465640A002063AB
:101EE0006F6C6420657874727573696F6E207072A0
:101EF0006576656E7465640A00627573793A207060
:101F0000617573656420666F7220696E7075740AFE
:101F100000627573793A2070617573656420666F2D
:101F20007220757365720A00627573793A20707257
:101F30006F63657373696E670A004B494C4C454487
:101F40002E20004B494C4C20636175736564206200
:101F50007920746F6F206D75636820696E6163749A
:101F60006976652074696D65202D206375727265D0
:101F70006E7420636F6D6D616E643A2000506C6505
:101F8000617365207265736574005052494E544503
:101F9000522048414C544544005072696E74657239
:101FA0002068616C7465642E206B696C6C28292034
:101FB00063616C6C6564210A000000000000000091
:101FC00000000000000000A0410000A041000080CF
:101FD00040000000005761726E696E673A20486FDA
:101FE0006D696E672042756D702044697669736F04
:101FF00072203C20310A000202040000A0400000D0
:10200000A0400000004000006B4300006B43000054
:102010007A43FFFFFF4D3331005344207265616402
:10202000206572726F720A00446F6E65207072696B
:102030006E74696E672066696C650A004B494C4C8A
:1020400045442E200053544F505045442E200050FC
:1020500072696E7465722073746F70706564206449
:10206000756520746F206572726F72732E204669D9
:102070007820746865206572726F7220616E6420CA
:10208000757365204D39393920746F20726573740A
:102090006172742E202854656D706572617475725A
:1020A000652069732072657365742E2053657420F2
:1020B00069742061667465722072657374617274EC
:1020C000696E67290A004E6F20436865636B7375FC
:1020D0006D2077697468206C696E65206E756D621D
:1020E00065722C204C617374204C696E653A200037
:1020F0004E6F20436865636B73756D2077697468F4
:10210000206C696E65206E756D6265722C204C6165
:102110007374204C696E653A2000636865636B7365
:10212000756D206D69736D617463682C204C6173EB
:1021300074204C696E653A20004C696E65204E75BE
:102140006D626572206973206E6F74204C617374C8
:10215000204C696E65204E756D6265722B312C20A6
:102160004C617374204C696E653A20004D313130FA
:10217000007C3C3E5E2B3D3F2F5B5D3B2C2A225C6E
:10218000004572726F722077726974696E6720748D
:102190006F20454550524F4D210A004578747275A5
:1021A000646572004D6F7665205A004D6F7665202C
:1021B00059004D6F766520580050726570617265E8
:1021C000004C6F61642073657474696E67730052AC
:1021D0006573746F7265206661696C736166650012
:1021E00053746F72652073657474696E677300420F
:1021F0004C546F7563680046696C616D656E740060
:102200004D6F74696F6E0054656D706572617475A1
:102210007265004D61696E004D33303320553120B9
:102220004525692053256900504944204175746F44
:1022300074756E6500504944204175746F74756EF5
:1022400065005049442D44005049442D44005049F4
:10225000442D49005049442D49005049442D500017
:102260005049442D50002008204661637400200826
:102270002046616374002008204D6178002008200A
:102280004D6178002008204D696E002008204D69BE
:102290006E004F6666004F6E20004175746F746566
:1022A0006D700046616E2073706565640046616EF6
:1022B0002073706565640042656400426564004E89
:1022C0006F7A7A6C65004E6F7A7A6C6500436F6E38
:1022D00074726F6C0050726F6265205A204F666690
:1022E00073657400436F6E74726F6C0046696C2E78
:1022F000204469612E0046696C2E204469612E00DD
:102300004F6666004F6E20004520696E206D6D336C
:1023100000436F6E74726F6C0043616E6E6F742059
:10232000656E746572207375626469723A2000028A
:102330002E2E000152656672657368004D61696EEC
:10234000004D61782054656D703A20313235004D72
:10235000696E2054656D703A203500544265643AC8
:102360004550434F53203130304B004D617820545D
:10237000656D703A20323735004D696E2054656DB9
:10238000703A20350054303A204550434F532031A5
:1023900030304B005053553A2047656E6572696383
:1023A0000050726F746F636F6C3A20312E300042B0
:1023B0006175643A20313135323030004D656C7AC8
:1023C000692028437265616C697479290042696CDF
:1023D000696E656172204C6576656C696E67004553
:1023E00078747275646572733A2031006874747021
:1023F0003A2F2F6D61726C696E66772E6F7267006F
:10240000456E6465722D3300323031382D30372DF2
:102410003331006275676669782D312E312E780070
:102420004D61726C696E00546865726D6973746F8A
:10243000727300426F61726420496E666F00507261
:10244000696E74657220496E666F004D61696E0039
:1024500000002100240027002A000000220025009F
:1024600028002B0000002000230026002900020283
:10247000020202020202040404040404040403032A
:10248000030303030303010101010101010101022F
:10249000040810204080010204081020408001023E
:1024A0000408102040808040201008040201000031
:1024B00000010200090A00000000040308070000F0
:1024C0000000000000000000000000000000494E75
:1024D00056414C49442044415441004D323420532C
:1024E000256C642054256C64004D32332025730024
:1024F0004739322E30205A257320452573004D343C
:10250000323020532569205A257300473238205233
:102510003020582059004731205A32004739322E96
:1025200030205A30004D343230205330205A3000A1
:102530002020506C616E6E657242756666657242EF
:10254000797465733A20002046726565204D656D8B
:102550006F72793A2000436F6D70696C65643A2040
:1025600041756720203120323032300A00207C2033
:10257000417574686F723A20287468697369736B67
:1025800065697468622C20456E6465722D33290A72
:1025900000323031382D30372D333100204C61730B
:1025A0007420557064617465643A200062756766D2
:1025B00069782D312E312E780A004D61726C696E6A
:1025C0000020536F6674776172652052657365747D
:1025D0000A00205761746368646F672052657365F1
:1025E000740A002042726F776E206F7574205265F6
:1025F0007365740A002045787465726E616C2052B0
:10260000657365740A00506F77657255700A0073C0
:10261000746172740A006175746F25692E670065B4
:1026200072726F722077726974696E6720746F209E
:1026300066696C650A00456E6473746F707320255B
:102640006320256320256320256300205A3A00205B
:10265000593A0020583A00656E6473746F707320A5
:102660006869743A2000446F6E6520736176696E04
:10267000672066696C652E0A004D3239004D323490
:10268000004D323320257300556E6B6E6F776E20D0
:10269000636F6D6D616E643A2022005772697469D0
:1026A0006E6720746F2066696C653A20006F7065F4
:1026B0006E206661696C65642C2046696C653A2001
:1026C0000050726F62696E67206661696C65640AAA
:1026D0000050726F62696E67206661696C656400A4
:1026E000205A3A200020593A200042656420583A86
:1026F000200053442063617264206F6B0A006F7086
:10270000656E526F6F74206661696C65640A00764D
:102710006F6C756D652E696E6974206661696C6594
:10272000640A00534420696E6974206661696C0A0A
:1027300000486F6D652025732573257320666972C7
:102740007374002066697273740A005A0059005845
:1027500000486F6D65200057726974696E67207458
:102760006F2066696C653A20006F70656E20666147
:10277000696C65642C2046696C653A20006F706551
:102780006E206661696C65642C2046696C653A2030
:102790000046696C652073656C65637465640A0046
:1027A0002053697A653A200046696C65206F706530
:1027B0006E65643A20002066696C653A2000646F9B
:1027C000696E67006672657368004E6F772000451A
:1027D0004E4420535542524F5554494E450A00220B
:1027E00020706F73002220706172656E743A22004F
:1027F000535542524F5554494E452043414C4C206D
:102800007461726765743A22004B494C4C45442E02
:102810002000747279696E6720746F2063616C6C3C
:10282000207375622D67636F64652066696C6573DC
:10283000207769746820746F6F206D616E79206CE9
:102840006576656C732E204D4158206C6576656CFD
:102850002069733A0043616E6E6F74206F70656E0D
:102860002073756264697220006563686F3A004482
:10287000656C6574696F6E206661696C65642C2097
:1028800046696C653A200046696C652064656C6534
:102890007465643A006F70656E206661696C65648A
:1028A0002C2046696C653A20004572726F723A00BE
:1028B00000060900FE0701920321207FFF07FF07A2
:1028C000FF0000000600000107070602008080806C
:1028D00080800080030202060105A0A0050707060C
:1028E00000005050F850F85050050707060000202F
:1028F00078A07028F020050707060000C0C8102047
:102900004098180507070600006090A040A890684E
:10291000020303060104C0408003070706010020EC
:10292000408080804020030707060100804020206F
:1029300020408005050506000120A870A820050597
:10294000050600012020F820200203030602FFC034
:102950004080050101060003F8020202060200C0E1
:10296000C005050506000108102040800507070680
:102970000000708888888888700307070601004077
:10298000C040404040E0050707060000708808701E
:102990008080F8050707060000F81020100808F0EE
:1029A00005070706000010305090F81010050707C3
:1029B000060000F880F00808887005070706000088
:1029C000708080F0888870050707060000F80810FE
:1029D000202020200507070600007088887088885E
:1029E00070050707060000708888780808700205DF
:1029F00005060200C0C000C0C00206060602FFC0F5
:102A0000C000C0408004070706000010204080403E
:102A10002010050303060002F800F804070706016A
:102A200000804020102040800507070600007088C5
:102A3000081020002005070706000070880868A815
:102A4000A870050707060000708888F88888880540
:102A50000707060000F08888F08888F00507070659
:102A6000000070888080808870050707060000F0ED
:102A70008888888888F0050707060000F88080F0BD
:102A80008080F8050707060000F88080F0808080CD
:102A9000050707060000708880B88888700507075A
:102AA000060000888888F8888888010707060200E1
:102AB0008080808080808005070706000038101025
:102AC000101090600507070600008890A0C0A09035
:102AD00088050707060000808080808080F8050751
:102AE0000706000088D8A888888888050707060098
:102AF000008888C8A898888805070706000070889D
:102B00008888888870050707060000F08888F080AC
:102B1000808005070706000070888888A8906805EF
:102B20000707060000F08888F0A0908805070706D0
:102B30000000788080700808F0050707060000F89C
:102B4000202020202020050707060000888888888C
:102B500088887005070706000088888888885020C4
:102B60000507070600008888888888A85005070799
:102B70000600008888502050888805070706000056
:102B800088888850202020050707060000F80810D4
:102B9000204080F8030707060100E08080808080E5
:102BA000E005050506000180402010080307070620
:102BB0000100E02020202020E0050303060004207F
:102BC0005088050101060000F80202020602058095
:102BD0004005050506000070087888780507070697
:102BE00000008080B0C88888F005050506000070E8
:102BF00080808870050707060000080868988888A4
:102C0000780505050600007088F88070050707063E
:102C100000003048E0404040400506060600FF70D6
:102C200088887808700507070600008080B0C8888B
:102C3000888801070706020080008080808080036A
:102C400008080601FF200020202020A040040707DC
:102C5000060000808090A0C0A09003070706010036
:102C6000C04040404040E0050505060000D0A8A84F
:102C7000A8A8050505060000B0C8888888050505D0
:102C800006000070888888700506060600FFF08838
:102C900088F080800506060600FF78888878080896
:102CA000050505060000B0C8808080050505060002
:102CB0000070807008F00407070600004040E04004
:102CC000404030050505060000888888986805059D
:102CD0000506000088888850200505050600008844
:102CE00088A8A850050505060000885020508805D2
:102CF00006060600FF888888780870050505060026
:102D000000F8102040F8030707060100204040802B
:102D1000404020010707060200808080808080807C
:102D20000307070601008040402040408005020262
:102D3000060002689000000006000000060900FE80
:102D4000000000000001090008FE00000508080658
:102D5000000040F0C8888898781005080806000030
:102D6000C0F88888888888F80505050600012030A5
:102D7000F830200508080600002070F820202020E8
:102D8000E00509090600FF2070A8A8B8888870200F
:102D90000509090600FFE080C0B0A82830282805F2
:102DA00009090600FFF8A88888888888A8F8050A15
:102DB0000A0600FE205050505088A8A888700303CF
:102DC0000306000340A04000CBE1F2DF11241FBE48
:102DD000CFEFD0E4DEBFCDBF12E0A0E0B1E0E2EA89
:102DE000FEEE01E00BBF02C007900D92A036B107C6
:102DF000D9F72AE1A0E6B2E001C01D92AE3DB207CC
:102E0000E1F716E1C5EED6E104C02197FE010E946C
:102E1000B5F6C43ED107C9F70E94D8E20C9444F736
:102E20000C9400006091130170911401072E000CA6
:102E3000880B990B0E94CFED2AE037ED43E25CE36B
:102E40000E942EEE2091F1073091F2074091F30796
:102E50005091F4070E942EEE60930F0170931001C1
:102E600080931101909312010895119800000000C1
:102E700087FD52C0419800000000119A0000000038
:102E800011980000000086FD53C04198000000002A
:102E9000119A0000000011980000000085FD46C056
:102EA000419800000000119A0000000011980000F5
:102EB000000084FD39C0419800000000119A000014
:102EC000000011980000000083FD2CC04198000014
:102ED0000000119A0000000011980000000082FD1F
:102EE0001FC0419800000000119A000000001198D6
:102EF0000000000081FD12C0419800000000119AFE
:102F0000000000001198000000004198000000003F
:102F1000119A000000000895419AADCF419AEDCF7B
:102F2000419AE0CF419AD3CF419AC6CF419AB9CFC7
:102F3000419AACCF90916F00292F227091FF05C06C
:102F400090916F009D7F90936F0034E0839FC0014C
:102F50001124FC01E353F84F408151816281738158
:102F60008F59974FFC01408351836283738381E0C3
:102F70008093CC07222329F080916F008260809398
:102F80006F000895BC0120915F0830916008409166
:102F90005F08509160082417350731F481E0261747
:102FA000370709F080E008959A01F1CFCF92DF92C0
:102FB000EF92FF928091AC0A882309F457C0C09029
:102FC000A80AD090A90AE090AA0AF090AB0A20E0E3
:102FD00030E0A901C701B6010E94C8ED882309F4B9
:102FE00045C020E030E040E05FE3C701B6010E9449
:102FF0002EEE9B01AC010E942EEE2BED3FE049E44A
:1030000050E40E942EEE9B01AC0160E070E080E88D
:103010009FE30E94F7F46B017C01C092F107D0920C
:10302000F207E092F307F092F407609113017091B8
:103030001401072E000C880B990B0E94CFED2AE09B
:1030400037ED43E25CE30E942EEEA70196010E9459
:103050002EEE60930F0170931001809311019093F5
:103060001201FF90EF90DF90CF900895C12CD12CEA
:1030700080E8E82E8FE3F82ED0CFCF93DF938091B6
:10308000CE0A811105C08091CF0A882309F459C066
:1030900080910E0832994FC08E7F80930E088091E8
:1030A0000E0833994AC08D7F80930E0880910E08D8
:1030B000349945C08B7F80930E08C0915208C0FFA1
:1030C00010C08091180880FF0CC080910E0880FF0E
:1030D00008C08091C10F81608093C10F80E00E9481
:1030E0009A17C1FF10C08091180881FF0CC0809111
:1030F0000E0881FF08C08091C10F82608093C10FCC
:1031000081E00E949A17C2FF1CC08091180882FFBC
:1031100018C08091CF0A8823A1F080910E0882FF09
:1031200010C08091C10F84608093C10F82E0DF9155
:10313000CF910C949A178160B0CF8260B5CF846034
:10314000BACFDF91CF910895CF92DF92EF92FF92A5
:10315000CF93C82F0E941EC06B017C0124EA30E788
:103160004DE75FE3609104097091050980910609BC
:10317000909107090E94C8ED87FD18C08AEF90E082
:10318000A0E0B0E08C0D9D1DAE1DBF1D8093B20A66
:103190009093B30AA093B40AB093B50AC0934D01BB
:1031A000CF91FF90EF90DF90CF90089580E090E076
:1031B000DC01E8CF0C942AC09F92AF92BF92CF92CD
:1031C000DF92EF92FF920F931F93CF93DF935B01F8
:1031D000E9014A3009F4C4C0453109F067C0DB0198
:1031E0001296ED91FC91F280C681D781139A88E204
:1031F00090E00197F1F7EF2CE29420EFE22230E12A
:10320000932E9F0C48E2C42ED12C88EF0E943517D4
:10321000C6010197F1F7BFE1BF1508F488C08F2DF3
:10322000807780680E9435178E2D0E943517C60161
:103230000197F1F780E80E94351780E00E9435176A
:10324000C6010197F1F78AEF0E943517C601019771
:10325000F1F78E01005F1F4F8881807F0E94351734
:1032600089918295807F0E943517C017D107A1F7F9
:10327000C6010197F1F7F394E0E1EE0EF910C5CF26
:103280001398D50112960D911C91C8010E9428C275
:103290008111FEC1DF91CF911F910F91FF90EF90AF
:1032A000DF90CF90BF90AF909F900895FB01028177
:1032B0001381ECEEE40FE43308F050C0F0E0ED5978
:1032C000F64E0C94B5F6F01A4519AE19381BAE1926
:1032D000AE19AE19AE19AE19AE19AE19AE19AE19B6
:1032E000AE19AE19AE19AE19AE19AE19AE19AE19A6
:1032F000AE19AE19AE19AE19AE19AE19AE19AE1996
:10330000AE19321BAE19AE19AE19AE19AE19AE19FF
:10331000AE19AE19031BAE19AE19AE19AE19AE191E
:10332000AE19AE19AE19AE19AE19551BAA1980EE19
:103330008F0D8068807F0E9435178F2D8295807F4A
:103340000E943517C6010197F1F780E80E943517F2
:1033500080E874CFD80111968C91888381E09ACF50
:103360000B9A1398399A4198099A119A139A88E2FC
:1033700090E00197F1F788E790E0CEE9DFE0FE0109
:103380003197F1F70197D9F788EF0E94351708E2D6
:1033900010E0C8010197F1F780E20E94351780E044
:1033A0000E943517C8010197F1F780E00E94351798
:1033B00080E80E943517C8010197F1F780E00E946C
:1033C000351780E10E943517C8010197F1F7CE014A
:1033D0000197F1F7CE010197F1F7CE010197F1F7CF
:1033E000CE010197F1F7CE010197F1F7CE010197D8
:1033F000F1F7CE010197F1F7CE010197F1F7CE0178
:103400000197F1F7CE010197F1F7CE010197F1F79E
:10341000CE010197F1F7CE010197F1F7CE010197A7
:10342000F1F72197F1F780E20E94351780E40E94BE
:103430003517C8010197F1F780E20E94351780E641
:103440000E943517C8010197F1F700E010E0C8E2CB
:10345000D0E0812F807780680E943517802F0E94EE
:103460003517CE010197F1F780E80E94351780E00B
:103470000E943517CE010197F1F78AEF0E943517A8
:10348000CE010197F1F780E2119800000000419809
:1034900000000000119A00000000119800000000D8
:1034A000419800000000119A0000000011980000EF
:1034B0000000419800000000119A000000001198DF
:1034C00000000000419800000000119A0000000078
:1034D000119800000000419800000000119A0000BF
:1034E0000000119800000000419800000000119AAF
:1034F000000000001198000000004198000000004A
:10350000119A00000000119800000000419800008E
:103510000000119A0000000011980000000041987E
:1035200000000000119A0000000011980000000047
:10353000419800000000119A00000000119800005E
:103540000000419800000000119A0000000011984E
:1035500000000000419800000000119A00000000E7
:10356000119800000000419800000000119A00002E
:103570000000119800000000419800000000119A1E
:1035800000000000119800000000419800000000B9
:10359000119A0000000011980000000041980000FE
:1035A0000000119A00000000FE013197F1F78150F0
:1035B00009F06ACF88EF0E943517CE010197F1F725
:1035C0001F5F005F103209F044CF80E00E94351782
:1035D00080EC0E9435172197F1F7139881E05ACEBD
:1035E000D80115964C91159750E0440F551F70E087
:1035F00060E016968D919C910E94DCF6C8010E94B5
:103600003EC281E047CE89812B81D80112966C9110
:10361000129713964C91213009F467C0233009F0BA
:1036200048C038EF380F582F91E0431708F490E066
:1036300041E0531708F040E031E0561708F430E05D
:10364000592F542B352319F4942309F487CEFA808B
:1036500030E0F901E151FE4FD08025513E4FF90194
:10366000E08040C0B901C8010E9412C281E012CEC0
:103670001882D80112968C911297898315968C9195
:10368000159781508A8313968C918B8381E002CEAB
:10369000F801458150E0440F551F70E060E08681DD
:1036A00097810E94DCF681E0F5CDF8018581888361
:1036B00055CE481708F452CE861708F44FCEFA803C
:1036C000E12CD12C243070F4C3CFBE01C8010E947C
:1036D00012C2898198819D0D98838E0D8983FF0C7C
:1036E00009F43CCEF7FEF6CFF0CF58E0580F382F54
:1036F0009BCF3F924F925F926F927F928F929F9259
:10370000AF92BF92CF92DF92EF92FF920F931F93EF
:10371000CF93DF93EC01162FDCAC5BAC5C0124E0B3
:10372000A20EB11CE98DFA8DC5010995982EE88489
:10373000F984C7010E94F6C3082F888599850E94E5
:10374000F9C3782E88248A94013011F48FE0882EF2
:10375000888599850E94ECC3082F888599850E94E9
:10376000E8C3C82E888599850E94F0C3113670F091
:10377000009761F0E80EF91E01E6C116B8F41C8A44
:103780001F8A188E1D8A1E8A80E05BC088859985F5
:103790000E94F3C3113430F0009721F0E80EF91EB7
:1037A00001E4EBCF81E1E80EF11CE7CFC01638F35E
:1037B000872D90E0F70124912F3F39F4FFEFEF1AA6
:1037C000FF0AC016E1F20F5FF5CF101368C08885BD
:1037D00099850E94F6C397012F5F3F4FF701882319
:1037E00019F0823009F044C084918F8BF901249143
:1037F000288FF7013396E491EC8BF7013496E4912E
:10380000ED8BF7013596E491EE8BE114F10409F4A8
:10381000BBCF888599850E94F9C3782ECF88388CD4
:103820008D89580E1D2D13198E89181B190D032D06
:103830002C2D412F652DC5010E9403C4811138C074
:103840008C899BAD890F8BAF81E090E0DF91CF91A8
:103850001F910F91FF90EF90DF90CF90BF90AF90AE
:103860009F908F907F906F905F904F903F900895C2
:103870008491982F9F7092509E8B82958F708D8B24
:10388000F9012491822F8F70888F22952F702F8BB2
:10389000F7013296E491E295EF70EC8BB6CF329659
:1038A000E491E821E80FF92FF11DEE0EFF1E89CFFC
:1038B000E70CF11C07E00C0D069506950695310EF8
:1038C0004E01F0E28F0E911C602E712C131509F43D
:1038D000B7CF452C670112C0F60184916E817F81BC
:1038E00048A219A31BA28AA394014BE3C5010E941D
:1038F00045C2FFEFCF1ADF0A28E0420E8C2D8E1949
:10390000801750F3E60CF71C1F5FE0CF1F93CF9397
:10391000DF93182FEB01FE018491219681110AC0DB
:10392000CEE9D5E0FE0184912196882331F00E94F2
:10393000AC7CF8CF0E94AC7CEECFC9E9D5E0112376
:1039400011F0CFE8D5E0FE0184912196882319F08B
:103950000E94AC7CF8CF8AE0DF91CF911F910C944C
:10396000AC7CCF93DF9380399240A1F0C9EAD8E2D2
:10397000FE018491219681110AC0C1ECD1E0FE01C3
:1039800084912196882351F00E94AC7CF8CF0E944C
:10399000AC7CEECF80E0DF91CF91089581E0FBCF4A
:1039A0004F925F926F927F928F929F92AF92BF924F
:1039B000CF92DF92EF92FF92CF93DF93CDB7DEB736
:1039C0006A970FB6F894DEBF0FBECDBF9A8F898F6E
:1039D0005B014A01DC01D7966D917D918D919C919F
:1039E000DA970E94CDED6B017C01F50120813181D8
:1039F000428153810E942EEE0E94E0F40E9470F5F5
:103A00003B015C01D4012D913D914D915C91C70129
:103A1000B6010E942EEE0E94E0F40E9470F56D82C5
:103A20007E82AF82B8862D813E814F8158852837AE
:103A300031054105510540F428E730E040E050E011
:103A40002D833E834F83588769837A838B839C833E
:103A500089819A81AB81BC8188379105A105B10527
:103A600040F428E730E040E050E029833A834B837C
:103A70005C83E98DFA8DED5BFF4F80819181A2819E
:103A8000B38189879A87AB87BC87BC01CD010E942F
:103A9000CFED2B013C016D817E818F8198850E9445
:103AA000CDED698B7A8B8B8B9C8B20E030E0A9016C
:103AB000C301B2010E94C8ED882309F43BC1A701EC
:103AC0009601C701B6010E942EEE4B015C012989C7
:103AD0003A894B895C89CA01B9010E942EEE9B018B
:103AE000AC01C501B4010E9473F44B015C01A30158
:103AF0009201C301B2010E9474F49B01AC01C501A3
:103B0000B4010E94F7F40E94E0F40E9470F56D8702
:103B10007E878F87988B69857A858B859C85909524
:103B20008095709561957F4F8F4F9F4F0E94CFED8D
:103B30004B015C0169817A818B819C810E94CDED72
:103B400069877A878B879C8720E030E0A901C501CF
:103B5000B4010E94C8ED882309F4F0C029853A8594
:103B60004B855C85CA01B9010E942EEE6D8B7E8B60
:103B70008F8B988FA7019601C701B6010E942EEE88
:103B80009B01AC016D897E898F89988D0E9473F4A9
:103B90006B017C01A5019401C501B4010E9474F47C
:103BA0009B01AC01C701B6010E94F7F40E949FF58A
:103BB000A98DBA8D95968D909D90AD90BC9098975B
:103BC000750164012D853E854F855889C21AD30A37
:103BD000E40AF50A0E9470F5C61AD70AE80AF90A3B
:103BE000F7FE6EC020E030E0A901C301B2010E94DF
:103BF000C8ED882309F4A6C0C501B4010E94CDED2B
:103C00006B017C01A3019201C301B2010E9474F413
:103C10009B01AC01C701B6010E942EEE6B017C0135
:103C200029893A894B895C89CA01B9010E942EEE23
:103C30009B01AC01C701B6010E9473F46B017C01CA
:103C400029853A854B855C85CA01B9010E942EEE13
:103C50009B01AC01C701B6010E9474F46B017C01A9
:103C600020E030E040E850E4C301B2010E942EEEB3
:103C70009B01AC01C701B6010E94F7F40E94E0F479
:103C80006B017C0120E030E0A9010E94F7F51816D5
:103C90001CF0C12CD12C7601C701B6010E9470F531
:103CA0006D877E878F87988B86169706A806B9063C
:103CB00020F48D869E86AF86B88AC12CD12C7601E1
:103CC0008D859E85AF85B889E98DFA8D82A793A7EA
:103CD000A4A7B5A7C80ED91EEA1EFB1EDF01C6A603
:103CE000D7A6E0AAF1AA2D813E814F81588523AF46
:103CF00034AF45AF56AFDF9629813A814B815C8165
:103D00002D933D934D935C9313976A960FB6F89459
:103D1000DEBF0FBECDBFDF91CF91FF90EF90DF9060
:103D2000CF90BF90AF909F908F907F906F905F905B
:103D30004F90089560E070E0CB01E5CE60E070E068
:103D4000CB0134CF60E070E0CB0198CFCF93DF930D
:103D500000D000D0CDB7DEB7882349F00E9414C749
:103D60000F900F900F900F90DF91CF91089588EBF7
:103D700091E09C838B8384E190E09A838983BE01E8
:103D80006D5F7F4FCE0101960E946DBBE9CF8091A0
:103D9000EA078230B1F09091D616992359F08091BC
:103DA000E716811104C08AED96E10C9445BB87EEBD
:103DB00096E1FBCF813041F087ED92E16FEF0C94FB
:103DC00078CE82EF92E1FACF86EE92E1F7CF282FFC
:103DD0001092C00A8091461190914711A09148110C
:103DE000B091491181309048A105B10540F0109281
:103DF000461110924711109248111092491180916A
:103E0000BB0A882331F0809146118093AF0A10924B
:103E1000AE0A8091AD0A1816FCF4082E000C990B1E
:103E2000821B91092091AF0A022E000C330B281738
:103E3000390794F097FF02C090E080E08093AF0ACA
:103E4000092E000CAA0BBB0B8093461190934711CF
:103E5000A0934811B09349118091AF0A6623A9F04D
:103E60009091B00A891714F48093B00A2091B00A97
:103E7000022E000C330B2C5F3F4F482F082E000CF6
:103E8000550B241735071CF484508093B00A08950D
:103E90008091DC088630D8F496E0899FF0011124E7
:103EA000E854F74F20915601309157013183208318
:103EB00040914611509147116091481170914911FC
:103EC00042835383648375838F5F8093DC080895F6
:103ED000CF92DF92EF92FF920F931F93CF93DF93D6
:103EE000EC016A017B0180915601909157018C177A
:103EF0009D0781F123E3C831D207A9F5875E9C4273
:103F000071F40E941EC06E517B4F8F4F9F4F609384
:103F1000B4087093B5088093B6089093B708D0930F
:103F20005701C0935601C0924611D0924711E092BA
:103F30004811F0924911C75EDC4221F41092BA0A8E
:103F40001092DC0882E08093660181E08093AE0AE3
:103F50001092C10ADF91CF911F910F91FF90EF90C6
:103F6000DF90CF9008952CE2C73ED207C1F688516A
:103F7000934319F0C7EEDCE2D2CF0E941EC000913D
:103F8000B4081091B5082091B6083091B708601BAD
:103F9000710B820B930B97FFEDCF80916816909178
:103FA0006916891B8F7021F48091D616882311F32E
:103FB000C4E3D8E2B4CF21E02093BA0A60930409A5
:103FC00070930509809306099093070940E050E03B
:103FD000BA0180910809909109090C94681F60E06A
:103FE00070E080E291E40C94DB1F60E070E080E818
:103FF0009FE30C94DB1F6DEC7CEC8CEC9DE30C944C
:10400000DB1F40E050E0BA0187EE9CE20C94681F91
:104010002F923F924F925F926F927F928F929F92D8
:10402000AF92BF92CF92DF92EF92FF920F931F93C6
:10403000CF93DF93CDB7DEB764970FB6F894DEBFAA
:104040000FBECDBF81E08093BA0A61E00E94E71EF7
:104050001091B00A85E0582E510E81E002E0402E0A
:10406000411A9EE1692E93E1792E2CE0C22E23E1C4
:10407000D22E9E012F5F3F4F79013FEFA32E32E1F9
:10408000B32E45E1842E43E1942E382E311A212E91
:104090002194111130C08823D9F08091AF0A1816ED
:1040A000BCF04091461150914711609148117091B8
:1040B00049114F5F5F4F6F4F7F4F409346115093B1
:1040C000471160934811709349118F5F8093AF0A35
:1040D00080916601882339F020E041E069E473E1D2
:1040E000822D0E94D3D380E01F5F5112D2CF83E094
:1040F0008093AD0A50C0113009F08BC08091AF0A97
:10410000813089F080916601882369F381E0909184
:10411000AF0A913009F080E020E24CE353E1632DD7
:104120000E9444C7E0CF8091C30A882359F31092BC
:10413000C30A0E94012070925711609256110E948A
:1041400001808091F1139091F213009789F09F9371
:104150008F939F928F92FF92EF920E945FEDC70123
:104160000E94CF7F0F900F900F900F900F900F90A5
:104170008091EF139091F013009731F58091F31334
:104180009091F413009791F50093C20A8091AE0AC2
:10419000882309F4B7CF64960FB6F894DEBF0FBE3C
:1041A000CDBFDF91CF911F910F91FF90EF90DF90E6
:1041B000CF90BF90AF909F908F907F906F905F90C7
:1041C0004F903F902F9008959F938F93DF92CF92BF
:1041D000FF92EF920E945FEDC7010E94CF7F0F9088
:1041E0000F900F900F900F900F90C8CF9F938F93C9
:1041F0001F921F92BF92AF92FF92EF920E945FEDCB
:10420000C7010E94CF7F0FB6F894DEBF0FBECDBFAF
:10421000BBCF123009F067CF8091AF0A823081F0B6
:1042200080916601882309F45ECF81E09091AF0A06
:10423000923009F080E020E241E353E1642D70CF39
:104240008091C30A882361F31092C30A0E94D7DFCA
:10425000109229170E9401208091AE0A882301F351
:104260009ACFE091DC08EE2389F0E150E093DC087E
:1042700086E0E89FF0011124E854F74F4281538112
:1042800064817581808191810C94681F0C94012058
:10429000CF92DF92EF92FF920F931F93CF93DF9312
:1042A000182F709309096093080961E081E00E946A
:1042B000E71EC091B00A85E0D82EDC0E81E004E054
:1042C0000C1B93E0F92EFC1A92E0E92EEC1AC82E92
:1042D000CC1ADC2FD195113009F45BC058F11230A3
:1042E00009F482C0C111A9C08823D9F08091AF0A16
:1042F0001816BCF040914611509147116091481139
:10430000709149114F5F5F4F6F4F7F4F4093461140
:104310005093471160934811709349118F5F8093B8
:10432000AF0A80916601882361F121E041E066EDEA
:1043300075E156C0C11181C08823D9F08091AF0AC0
:104340001816BCF0409146115091471160914811E8
:10435000709149114F5F5F4F6F4F7F4F40934611F0
:104360005093471160934811709349118F5F809368
:10437000AF0A8091660121E041E06DEE75E18111A7
:104380002FC080E0CF5FDC12A6CF85E08093AD0A1E
:1043900078C0C11152C08823D9F08091AF0A181695
:1043A000BCF04091461150914711609148117091B5
:1043B00049114F5F5F4F6F4F7F4F409346115093AE
:1043C000471160934811709349118F5F8093AF0A32
:1043D0008091660121E041E066EE75E1882389F273
:1043E0008D2F0E94D3D3CDCFC11127C08823D9F000
:1043F0008091AF0A1816BCF04091461150914711B8
:1044000060914811709149114F5F5F4F6F4F7F4F1F
:10441000409346115093471160934811709349118E
:104420008F5F8093AF0A8091660121E041E06FEDDC
:1044300075E1882309F4A5CFD3CFC13059F5809118
:10444000AF0A813091F080916601882309F499CFF9
:1044500081E09091AF0A913009F080E024E04CECCB
:1044600055E16C2D0E9444C78CCF8091C30A8823EC
:1044700051F31092C30A0E9431218091AE0A882321
:1044800011F3DF91CF911F910F91FF90EF90DF908B
:10449000CF900895C23009F055C08091AF0A8230A4
:1044A00081F080916601882309F46BCF81E09091BF
:1044B000AF0A923009F080E023E042EC55E16E2D26
:1044C000D1CF8091C30A882361F31092C30A8FEE83
:1044D0009FE10E94B1D58091AE0A882311F3D1CF1C
:1044E0008091AF0A833081F080916601882309F4BE
:1044F00048CF81E09091AF0A933009F080E023E04B
:1045000049EB55E16F2DAECF8091C30A882361F34B
:104510001092C30A85EF9FE10E94B1D58091AE0A47
:10452000882311F3AECF8091C30A8823A1F01092A3
:10453000C30A8BEF9FE10E94B1D58091AE0A882318
:1045400051F09FCFC33061F2C43009F01ACF80918F
:10455000AF0A843041F380916601882309F411CFBA
:1045600081E09091AF0A943009F080E023E04EEAB8
:1045700055E1602F77CFEF92FF920F931F93CF9368
:10458000DF9361E081E00E94E71EC091B00A85E000
:10459000F82EFC0ED3E0DC1B12E01C1B01E00C1B10
:1045A000EC2EE194C1112DC08091AF0A8823B1F0A7
:1045B00080916601882359F081E09091AF0A9111B2
:1045C00080E024E04DEC54E16E2D0E9444C7CF5FA3
:1045D000FC12E8CF84E08093AD0A0CC08091C30A3E
:1045E000882331F31092C30A0E9431218091AE0AD0
:1045F0008823F1F2DF91CF911F910F91FF90EF90FF
:104600000895C13061F58091AF0A813079F08091D1
:1046100066018823E1F281E09091AF0A913009F0C0
:1046200080E020E241EC54E1602FCFCF8091C30ABB
:10463000882369F31092C30A4091FD075091FE0749
:104640006091F9077091FA078091F5079091F6074C
:104650000E94FFCD8091AE0A8823C9F2CBCFC23031
:1046600009F042C08091AF0A823081F080916601EA
:10467000882309F4ACCF81E09091AF0A923009F021
:1046800080E020E241EA54E1612F9FCF8091C30A8C
:10469000882361F31092C30A4091FD075091FE07F1
:1046A0006FEF7FEF8091F5079091F6070E94FFCDA5
:1046B0008091AE0A8823D1F29DCF8091C30A8823CE
:1046C000D1F01092C30A4091FD075091FE0760910E
:1046D000F9077091FA0790E080E00E94FFCD809189
:1046E000AE0A882341F086CFC33009F070CF8091A5
:1046F000AF0A833011F380916601882309F467CFF4
:1047000081E09091AF0A933009F080E020E241EB24
:1047100054E16D2F5ACFEF92FF920F931F93CF93D7
:10472000DF9361E081E00E94E71EC091B00A85E05E
:10473000F82EFC0ED3E0DC1B12E01C1B01E00C1B6E
:10474000EC2EE194C1112DC08091AF0A8823B1F005
:1047500080916601882359F081E09091AF0A911110
:1047600080E024E041E055E16E2D0E9444C7CF5F18
:10477000FC12E8CF84E08093AD0A0CC08091C30A9C
:10478000882331F31092C30A0E9431218091AE0A2E
:104790008823F1F2DF91CF911F910F91FF90EF905D
:1047A0000895C13061F58091AF0A813079F0809130
:1047B00066018823E1F281E09091AF0A913009F01F
:1047C00080E020E245EF54E1602FCFCF8091C30A13
:1047D000882369F31092C30A4091FF0750910008A3
:1047E0006091FB077091FC078091F7079091F807A3
:1047F0000E94FFCD8091AE0A8823C9F2CBCFC23090
:1048000009F042C08091AF0A823081F08091660148
:10481000882309F4ACCF81E09091AF0A923009F07F
:1048200080E020E245ED54E1612F9FCF8091C30AE3
:10483000882361F31092C30A4091FF07509100084A
:104840006FEF7FEF8091F7079091F8070E94FFCDFF
:104850008091AE0A8823D1F29DCF8091C30A88232C
:10486000D1F01092C30A4091FF0750910008609167
:10487000FB077091FC0790E080E00E94FFCD8091E3
:10488000AE0A882341F086CFC33009F070CF809103
:10489000AF0A833011F380916601882309F467CF52
:1048A00081E09091AF0A933009F080E020E245EE7C
:1048B00054E16D2F5ACF2F923F924F925F926F9299
:1048C0007F928F929F92AF92BF92CF92DF92EF92A0
:1048D000FF920F931F93CF93DF9300D000D0CDB7FB
:1048E000DEB761E081E00E94E71E1091B00A612E00
:1048F00085E0782E710E97E7892E99249394A12C48
:10490000B12C05E0011B84E0F82EF11A83E0E82EBB
:10491000E11A82E0D82ED11A24EF222E33243394C8
:10492000412C512C81E0C82EC11A11113EC080913A
:10493000AF0A8823B9F080916601882361F0662D63
:10494000619581E09091AF0A911180E024E04AE9FD
:1049500053E10E9444C71F5F7112E7CF86E0809346
:10496000AD0A0CC08091C30A882329F31092C30AB0
:104970000E9431218091AE0A8823E9F20F900F90B6
:104980000F900F90DF91CF911F910F91FF90EF90BB
:10499000DF90CF90BF90AF909F908F907F906F905F
:1049A0005F904F903F902F900895113041F5809186
:1049B000AF0A813079F080916601882361F281E04D
:1049C0009091AF0A913009F080E020E24FE853E186
:1049D0006C2DBFCF8091C30A882369F31092C30A5C
:1049E00029823A824B825C82BE016F5F7F4F80EAF0
:1049F0000E948F768091AE0A8823E9F2BFCF1230F1
:104A000009F080C08091AF0A823081F08091660108
:104A1000882309F4A0CF81E09091AF0A923009F089
:104A200080E020E243E753E16D2D93CF8091C30AEC
:104A3000882361F31092C30A89829A82AB82BC8276
:104A4000BE016F5F7F4F88E70E948F768091AE0A2C
:104A50008823E1F293CF8091AF0A833081F0809177
:104A60006601882309F477CF81E09091AF0A9330F3
:104A700009F080E020E247E653E16E2D6ACF809195
:104A8000C30A882361F31092C30A0E94C9768091F9
:104A9000AE0A882321F372CF8091AF0A843081F06F
:104AA00080916601882309F456CF81E09091AF0A86
:104AB000943009F080E020E24DE553E16F2D49CFBD
:104AC0008091C30A882361F31092C30A0E94AE76D4
:104AD0008091AE0A882321F351CF8091C30A8823A5
:104AE000E9F01092C30A89829A82AB82BC82BE012D
:104AF0006F5F7F4F8CE30E948F768091AE0A882390
:104B000069F03CCF133009F4A6CF143029F21530E8
:104B100009F021CF8091AF0A8530F9F280916601CA
:104B2000882309F418CF81E09091AF0A953009F0FD
:104B300080E020E242E853E1602F0BCF9CE0899FA8
:104B4000802D112491E0980F909344112CE0280FB0
:104B50002093451140915F1630E02E5F3F4F421782
:104B6000130609F0A4F420916116921780F46623CD
:104B700041F08E5F0E9425C4809145118E5F0E9496
:104B800025C4809145111092621680936316089592
:104B9000CF93DF931F92CDB7DEB78091641681115A
:104BA00005C081E0809364160E94AAC260912D1610
:104BB00070912E1619829E012F5F3F4F4FE08BE2BE
:104BC00096E10E9445C20F90DF91CF9108950F9317
:104BD0001F93CF93C62F8C01CC2349F0F80181910C
:104BE0008F01882321F00E941CBAC150F5CFCF91CC
:104BF0001F910F9108959FEF980F993020F40E9414
:104C0000D9CD81E008950E941CBAFBCF9FEF980F89
:104C1000993010F40C94D9CD0C941CBACF93DF9337
:104C2000EC01FE018491882321F00E940626219642
:104C3000F8CFDF91CF910895CF93DF93EC01899165
:104C4000882319F00E940626FACFDF91CF910895AC
:104C5000AF92BF92CF92DF92EF92FF920F931F938A
:104C6000CF93DF935C017B010E94C5D3C82FC7019E
:104C70000E9437D504E110E0081B1109DD24D3940C
:104C8000C017110619F014F082E0D82E80912C166E
:104C900090E06D2D70E06F5F7F4F0E94A1F6C62EF1
:104CA000C6E0C60F80915F16C81788F12091611683
:104CB0004C2F4B50550B241715064CF110926216D1
:104CC000C0936316C5010E9421BAD1E0E114F1043A
:104CD00099F08AE30E941CBA52E0D5121AC0CC0D9A
:104CE00080915F16C81740F0209161164C2F4B50F1
:104CF000550B241715067CF4DF91CF911F910F916E
:104D0000FF90EF90DF90CF90BF90AF900895D0E0EC
:104D1000DDCFDD2389F3802F880F800F880F8093EC
:104D20006216C093631680E20E941CBAC701DF912D
:104D3000CF911F910F91FF90EF90DF90CF90BF9098
:104D4000AF900C941C268091C30A1092C30A88234A
:104D500021F01092BA0A0C943121609146117091A1
:104D60004711809148119091491161157105810594
:104D7000910561F10E94CFED209104093091050960
:104D800040910609509107090E942EEE209178115A
:104D90003091791140917A1150917B110E9474F4F5
:104DA000609378117093791180937A1190937B11AD
:104DB00083E00E94A41881E080936601109246115E
:104DC000109247111092481110924911809166017A
:104DD000882349F088E791E10E9496C4BC0185EAE6
:104DE00095E10C94282608953F924F925F926F921E
:104DF0007F928F929F92AF92BF92CF92DF92EF926B
:104E0000FF920F931F93CF93DF93CDB7DEB72A970F
:104E10000FB6F894DEBF0FBECDBF9A878987362EB6
:104E20008091C30A1092C30A8823E1F01092BA0A53
:104E30000E9431212A960FB6F894DEBF0FBECDBF77
:104E4000DF91CF911F910F91FF90EF90DF90CF9066
:104E5000BF90AF909F908F907F906F905F904F909A
:104E60003F9008958091461190914711A09148116B
:104E7000B09149118D839E83AF83B887892B8A2B8C
:104E80008B2B09F454C094E0699F80011124F80130
:104E9000E459FE4E408051806280738020E030E013
:104EA0004AE754E4C301B2010E9473F44B015C0170
:104EB0008091230181117AC020E030E04AE754E478
:104EC000C301B2010E9474F46B017C016D817E818B
:104ED0008F8198850E94CFED2091040930910509BA
:104EE00040910609509107090E942EEEA3019201FC
:104EF0000E9474F42B013C018D819E81AF81B885A5
:104F0000B7FF8DC0A5019401C301B2010E94C8ED95
:104F100087FD7DC0F801E459FE4E408251826282D5
:104F20007382832D0E94A41881E080936601109201
:104F30004611109247111092481110924911809118
:104F40006601882309F476CFA4E03A9EC0011124BB
:104F5000FC01E459FE4E845A9E4EDC012D913D9198
:104F60004D915C9160817181828193810E9474F482
:104F700069837A838B839C832DEC3CEC4CEC5DE362
:104F800060910409709105098091060990910709C3
:104F90000E94F7F587FD54C0CE0101960E9496C489
:104FA000BC0189859A850E94282644CFA1E03A1643
:104FB000A1F0B2E03B1611F1809001089090020838
:104FC000A0900308B0900408C0901701D090180179
:104FD000E0901901F0901A0179CF80900508909027
:104FE0000608A0900708B0900808C0901B01D09058
:104FF0001C01E0901D01F0901E0168CFC0901F01C0
:10500000D0902001E0902101F09022015FCFF801C3
:10501000E459FE4E80829182A282B38282CFA701A0
:105020009601C301B2010E94F7F518160CF072CF79
:10503000F801E459FE4EC082D182E282F38271CF40
:10504000CE0101960E94D2BCABCF62E08EE995E121
:105050000C94F42661E087E995E10C94F42660E075
:1050600080E995E10C94F4268F929F92AF92BF92C3
:10507000CF92DF92EF92FF928091C30A1092C30AFF
:10508000882361F01092BA0AFF90EF90DF90CF90E2
:10509000BF90AF909F908F900C94312181E08093CE
:1050A000BA0A8090461190904711A0904811B09094
:1050B000491181149104A104B10409F450C0109263
:1050C0004611109247111092481110924911B401E3
:1050D000092C000C880B990B0E94CFED2091FC0845
:1050E0003091FD084091FE085091FF080E942EEE7D
:1050F000209168113091691140916A1150916B11A2
:105100000E9474F46B017C0120E030E040EA51EC35
:105110000E94F7F587FD23C020E030E040EA51E42B
:10512000C701B6010E94C8ED1816CCF080915B1142
:1051300082FF0AC08091EF079091F007880D991DBA
:105140009093F0078093EF07C0926811D092691195
:10515000E0926A11F0926B1182E080936601809177
:105160006601882389F088E691E10E94D2BCBC01E7
:105170008EE394E1FF90EF90DF90CF90BF90AF90DF
:105180009F908F900C942826FF90EF90DF90CF9007
:10519000BF90AF909F908F900895CF92DF92EF9243
:1051A000FF920F93CF93DF93982F862F6A01790197
:1051B000692F0E949E2590915F1680914511891755
:1051C00008F445C09091611680914411981708F435
:1051D0003EC0C701002381F00E94C5D3C82FD4E18F
:1051E000D81BF6018491882351F00E94FB25D81B1F
:1051F000FFEFCF1ADF0AF5CF0E9437D5EFCF8AE352
:105200000E941CBAD15010F080E2FACF8091451173
:105210009C2F990F990FC91BCC0FC058C0936216D1
:1052200080936316C701002349F0DF91CF910F915E
:10523000FF90EF90DF90CF900C940E26DF91CF91EE
:105240000F91FF90EF90DF90CF900C941C26DF9190
:10525000CF910F91FF90EF90DF90CF9008958F92B4
:105260009F92AF92BF92CF92DF92EF92FF920F93F5
:105270001F93CF93DF9361E081E00E94E71EC0910E
:10528000B00A85E0A82EAC0E86E0F82EFC1AD1E01C
:1052900085E0E82EEC1A84E0D82EDC1A83E0C82ED4
:1052A000CC1A82E0B82EBC1A9D2E9C1A8C2E8194AA
:1052B000C1112EC08091AF0A882389F080916601C8
:1052C000882309F443C081E09091AF0A911180E0F6
:1052D00024E04CE954E1682D0E9444C737C0809116
:1052E000C30A882359F31092C30A0E943121809186
:1052F000AE0A882319F3DF91CF911F910F91FF9090
:10530000EF90DF90CF90BF90AF909F908F900895D7
:10531000C130D1F58091AF0A8130F9F080916601FA
:105320008823A1F011E08091AF0A813009F010E0EC
:1053300080911501909116010E948BC500E09C019F
:1053400040E954E1692D812F0E94CD28CF5FAC1236
:10535000AFCF87E08093AD0ACECF8091C30A882378
:10536000E9F21092C30A10E000E027EE33E04AE0D1
:1053700050E065E171E086E994E10E9428BE8091E9
:10538000AE0A882359F2B7CFC23009F0F4C0809139
:10539000AF0A8230B1F0809166018823B9F211E042
:1053A0008091AF0A823009F010E080911F16909131
:1053B00020160E948BC500E09C0142E854E16B2D51
:1053C000C2CF8091C30A882331F31092C30AD093CD
:1053D000C00A1092BC0A1092BD0A1092BE0A109226
:1053E000BF0A0AED18E124E031E050E040E06FE14F
:1053F00076E189E894E10E9428BE8091AE0A882374
:1054000051F279CF8091AF0A8330B9F08091660173
:10541000882309F49BCF11E08091AF0A833009F013
:1054200010E080914A1190914B110E948BC500E0D1
:105430009C014AE754E16C2D86CF8091C30A8823F2
:1054400029F31092C30AD093C00A1092BC0A10929A
:10545000BD0A1092BE0A1092BF0A04E01CE22EE6BA
:1054600030E050E040E06AE471E18EE794E10E94B0
:1054700028BE8091AE0A882349F23DCF8091AF0AC1
:105480008430B9F080916601882309F45FCF11E080
:105490008091AF0A843009F010E080914C11909116
:1054A0004D110E948BC500E09C0146E654E16D2D34
:1054B0004ACF8091C30A882329F31092C30AD0935C
:1054C000C00A1092BC0A1092BD0A1092BE0A109235
:1054D000BF0A10E000E02FEF30E050E040E06CE465
:1054E00071E180E794E10E9428BE8091AE0A882392
:1054F00049F201CF8091AF0A8530B9F08091660101
:10550000882309F423CF11E08091AF0A853009F098
:1055100010E080911301909114010E948BC500E06E
:105520009C014CE554E16E2D0ECF8091C30A882377
:1055300029F31092C30A02E117E127EE33E04AE0B3
:1055400050E063E171E081E694E10E9428BE809121
:10555000AE0A882399F2CFCE8091C30A8823D9F06E
:105560001092C30A84E398E20E94B1D58091AE0AFA
:10557000882389F0C0CEC33009F444CFC43009F485
:105580007DCFC53009F4B6CFC63009F0DFCE8091AB
:10559000AF0A863009F380916601882309F4D6CEDC
:1055A00081E09091AF0A963009F080E023E04DE46D
:1055B00054E16F2D91CECF93C82F823079F024F42F
:1055C000813049F0CF910895833011F08430D1F7C4
:1055D00080EB98E205C0CF910C94E7CD8BE39DE280
:1055E0000E9438BAC093C50AEDCF8F929F92AF92B6
:1055F000BF92CF92DF92EF92FF920F931F93CF93C0
:10560000DF93B0E4A0E06A2F70E0AB014B0F511DB7
:10561000559547954A1711F0B41319C0EBE8FFE010
:1056200065917491072E000C880B990B0E94CFEDA9
:10563000DF91CF911F910F91FF90EF90DF90CF906E
:10564000BF90AF909F908F900895B42FDECF9A01B6
:1056500021503109220F331F220F331FF901E35765
:10566000F14FE590F490F901EF56F14FC591D491C7
:105670008E159F0554F3A42FC817D9070CF4C3CF78
:10568000F901E157F14F05911491F901ED56F14FF0
:10569000C590D490BC016E197F09072E000C880BB1
:1056A000990B0E94CFED4B015C01B601601B710BA1
:1056B000072E000C880B990B0E94CFED9B01AC01CB
:1056C000C501B4010E942EEE4B015C01BE016E19B2
:1056D0007F09072E000C880B990B0E94CFED9B01D0
:1056E000AC01C501B4010E94F7F46B017C01B80163
:1056F000110F880B990B0E94CFED9B01AC01C701E4
:10570000B6010E9474F494CF0F930FB70F930091DA
:105710006E000B7F00936E0078940F930BB70F937E
:105720000CB70F921F922F933F934F935F936F93FA
:105730007F938F939F93AF93BF93EF93FF93112426
:105740000E94A937FF91EF91BF91AF919F918F91E7
:105750007F916F915F914F913F912F911F900F908B
:105760000CBF0F910BBF0F910460F89400936E0073
:105770000F910FBF0F911895CF92DF92EF92FF928A
:10578000C090E607D090E707E090E807F090E907BF
:1057900060914A1170914B1166507109072E000CEF
:1057A000880B990B0E94CFEDA70196010E94F7F597
:1057B00018160CF520E030E040E050E4C701B601D7
:1057C0000E9474F40E9470F5709396086093950897
:1057D0000E941EC0605A75418F4F9F4F6093910881
:1057E000709392088093930890939408FF90EF90A1
:1057F000DF90CF9008951092910810929208109225
:10580000930810929408F2CF0C94BC2B8F929F9225
:10581000AF92BF92CF92DF92EF92FF920F931F93BE
:10582000CF93DF93B0E4A0E06A2F70E0AB014B0FA1
:10583000511D55954795A41711F0B41319C0EBE805
:10584000FFE065917491072E000C880B990B0E9464
:10585000CFEDDF91CF911F910F91FF90EF90DF90EF
:10586000CF90BF90AF909F908F900895B42FDECFD0
:105870009A0121503109220F331F220F331FF901E2
:10588000E357F14FE590F490F901EF56F14FC591D0
:10589000D4918E159F0554F3A42FC817D9070CF483
:1058A000C3CFF901E157F14F05911491F901ED567C
:1058B000F14FC590D490BC016E197F09072E000CE2
:1058C000880B990B0E94CFED4B015C01B601601B68
:1058D000710B072E000C880B990B0E94CFED9B01DA
:1058E000AC01C501B4010E942EEE4B015C01BE016A
:1058F0006E197F09072E000C880B990B0E94CFEDC3
:105900009B01AC01C501B4010E94F7F46B017C015D
:10591000B801110F880B990B0E94CFED9B01AC01D0
:10592000C701B6010E9474F494CF8091A1089091B0
:10593000A2080E94F52A6093211670932216809384
:1059400023169093241680919F089091A0080E949E
:10595000062C6093E6077093E7078093E80790931F
:10596000E907A8951092E10708950F931F9380917E
:10597000EA07813019F50E941EC000916D08109150
:105980006E0820916F0830917008601B710B820BBC
:10599000930B28EE33E040E050E00E9410F4609159
:1059A000DD077091DE078091DF079091E007620FBD
:1059B000731F841F951F1F910F91089560917108A7
:1059C000709172088091730890917408D6CF3F92BD
:1059D0004F925F926F927F928F929F92AF92BF92FF
:1059E000CF92DF92EF92FF920F931F93CF93DF93AB
:1059F000CDB7DEB72A970FB6F894DEBF0FBECDBF86
:105A00001092C00A8091C30A1092C30A882309F138
:105A10000E94C82540E050E0BA0188E193E30E946B
:105A2000681F2A960FB6F894DEBF0FBECDBFDF9178
:105A3000CF911F910F91FF90EF90DF90CF90BF908B
:105A4000AF909F908F907F906F905F904F903F901E
:105A500008954091461150914711609148117091FD
:105A600049112091150130911601C901840F951F2C
:105A7000243631050CF09AC2853691050CF09DC292
:105A800090931601809315011092461110924711C0
:105A900010924811109249118091150190911601B0
:105AA000883EE3E09E0714F087EE93E08A3091058C
:105AB00014F48AE090E090931601809315010E94FF
:105AC0001EC00091DE081091DF082091E00830919F
:105AD000E1086B017C01C01AD10AE20AF30A9701BE
